{
  "_format": "hh-sol-artifact-1",
  "contractName": "Voting",
  "sourceName": "contracts/Voting.sol",
  "abi": [
    {
      "anonymous": false,
      "inputs": [
        {
          "indexed": true,
          "internalType": "address",
          "name": "previousOwner",
          "type": "address"
        },
        {
          "indexed": true,
          "internalType": "address",
          "name": "newOwner",
          "type": "address"
        }
      ],
      "name": "OwnershipTransferred",
      "type": "event"
    },
    {
      "anonymous": false,
      "inputs": [
        {
          "indexed": false,
          "internalType": "uint256",
          "name": "proposalId",
          "type": "uint256"
        }
      ],
      "name": "ProposalRegistered",
      "type": "event"
    },
    {
      "anonymous": false,
      "inputs": [
        {
          "indexed": false,
          "internalType": "address",
          "name": "voter",
          "type": "address"
        },
        {
          "indexed": false,
          "internalType": "uint256",
          "name": "proposalId",
          "type": "uint256"
        }
      ],
      "name": "Voted",
      "type": "event"
    },
    {
      "anonymous": false,
      "inputs": [
        {
          "indexed": false,
          "internalType": "address",
          "name": "voterAddress",
          "type": "address"
        }
      ],
      "name": "VoterRegistered",
      "type": "event"
    },
    {
      "anonymous": false,
      "inputs": [
        {
          "indexed": false,
          "internalType": "enum Voting.WorkflowStatus",
          "name": "previousStatus",
          "type": "uint8"
        },
        {
          "indexed": false,
          "internalType": "enum Voting.WorkflowStatus",
          "name": "newStatus",
          "type": "uint8"
        }
      ],
      "name": "WorkflowStatusChange",
      "type": "event"
    },
    {
      "inputs": [
        {
          "internalType": "string",
          "name": "_desc",
          "type": "string"
        }
      ],
      "name": "addProposal",
      "outputs": [],
      "stateMutability": "nonpayable",
      "type": "function"
    },
    {
      "inputs": [
        {
          "internalType": "address",
          "name": "_addr",
          "type": "address"
        }
      ],
      "name": "addVoter",
      "outputs": [],
      "stateMutability": "nonpayable",
      "type": "function"
    },
    {
      "inputs": [],
      "name": "endProposalsRegistering",
      "outputs": [],
      "stateMutability": "nonpayable",
      "type": "function"
    },
    {
      "inputs": [],
      "name": "endVotingSession",
      "outputs": [],
      "stateMutability": "nonpayable",
      "type": "function"
    },
    {
      "inputs": [
        {
          "internalType": "uint256",
          "name": "_id",
          "type": "uint256"
        }
      ],
      "name": "getOneProposal",
      "outputs": [
        {
          "components": [
            {
              "internalType": "string",
              "name": "description",
              "type": "string"
            },
            {
              "internalType": "uint256",
              "name": "voteCount",
              "type": "uint256"
            }
          ],
          "internalType": "struct Voting.Proposal",
          "name": "",
          "type": "tuple"
        }
      ],
      "stateMutability": "view",
      "type": "function"
    },
    {
      "inputs": [],
      "name": "getProposalsCount",
      "outputs": [
        {
          "internalType": "uint256",
          "name": "",
          "type": "uint256"
        }
      ],
      "stateMutability": "view",
      "type": "function"
    },
    {
      "inputs": [],
      "name": "getRegisteredVoterCount",
      "outputs": [
        {
          "internalType": "uint256",
          "name": "",
          "type": "uint256"
        }
      ],
      "stateMutability": "view",
      "type": "function"
    },
    {
      "inputs": [
        {
          "internalType": "address",
          "name": "_addr",
          "type": "address"
        }
      ],
      "name": "getVoter",
      "outputs": [
        {
          "components": [
            {
              "internalType": "bool",
              "name": "isRegistered",
              "type": "bool"
            },
            {
              "internalType": "bool",
              "name": "hasVoted",
              "type": "bool"
            },
            {
              "internalType": "uint256",
              "name": "votedProposalId",
              "type": "uint256"
            }
          ],
          "internalType": "struct Voting.Voter",
          "name": "",
          "type": "tuple"
        }
      ],
      "stateMutability": "view",
      "type": "function"
    },
    {
      "inputs": [],
      "name": "owner",
      "outputs": [
        {
          "internalType": "address",
          "name": "",
          "type": "address"
        }
      ],
      "stateMutability": "view",
      "type": "function"
    },
    {
      "inputs": [
        {
          "internalType": "uint256",
          "name": "",
          "type": "uint256"
        }
      ],
      "name": "registeredVoters",
      "outputs": [
        {
          "internalType": "address",
          "name": "",
          "type": "address"
        }
      ],
      "stateMutability": "view",
      "type": "function"
    },
    {
      "inputs": [],
      "name": "renounceOwnership",
      "outputs": [],
      "stateMutability": "nonpayable",
      "type": "function"
    },
    {
      "inputs": [
        {
          "internalType": "uint256",
          "name": "_id",
          "type": "uint256"
        }
      ],
      "name": "setVote",
      "outputs": [],
      "stateMutability": "nonpayable",
      "type": "function"
    },
    {
      "inputs": [],
      "name": "startProposalsRegistering",
      "outputs": [],
      "stateMutability": "nonpayable",
      "type": "function"
    },
    {
      "inputs": [],
      "name": "startVotingSession",
      "outputs": [],
      "stateMutability": "nonpayable",
      "type": "function"
    },
    {
      "inputs": [],
      "name": "tallyVotes",
      "outputs": [],
      "stateMutability": "nonpayable",
      "type": "function"
    },
    {
      "inputs": [
        {
          "internalType": "address",
          "name": "newOwner",
          "type": "address"
        }
      ],
      "name": "transferOwnership",
      "outputs": [],
      "stateMutability": "nonpayable",
      "type": "function"
    },
    {
      "inputs": [],
      "name": "winningProposalID",
      "outputs": [
        {
          "internalType": "uint256",
          "name": "",
          "type": "uint256"
        }
      ],
      "stateMutability": "view",
      "type": "function"
    },
    {
      "inputs": [],
      "name": "workflowStatus",
      "outputs": [
        {
          "internalType": "enum Voting.WorkflowStatus",
          "name": "",
          "type": "uint8"
        }
      ],
      "stateMutability": "view",
      "type": "function"
    }
  ],
  "bytecode": "0x60806040523480156200001157600080fd5b5062000032620000266200003860201b60201c565b6200004060201b60201c565b62000104565b600033905090565b60008060009054906101000a900473ffffffffffffffffffffffffffffffffffffffff169050816000806101000a81548173ffffffffffffffffffffffffffffffffffffffff021916908373ffffffffffffffffffffffffffffffffffffffff1602179055508173ffffffffffffffffffffffffffffffffffffffff168173ffffffffffffffffffffffffffffffffffffffff167f8be0079c531659141344cd1fd0a4f28419497f9722a3daafe3b4186f6b6457e060405160405180910390a35050565b61262580620001146000396000f3fe608060405234801561001057600080fd5b50600436106101165760003560e01c8063a2788cce116100a2578063c88af42f11610071578063c88af42f14610271578063d4f50f981461027b578063ee74c678146102ab578063f2fde38b146102b5578063f4ab9adf146102d157610116565b8063a2788cce1461020f578063a7bfab161461023f578063bdc0143114610249578063c7038a4e1461026757610116565b8063378a2178116100e9578063378a2178146101a1578063715018a6146101ab5780638da5cb5b146101b557806398e527d3146101d3578063a1edffa2146101f157610116565b8063230796ae1461011b5780632436e06b146101375780632b8c2504146101675780632fdae3c514610185575b600080fd5b61013560048036038101906101309190611621565b6102ed565b005b610151600480360381019061014c9190611621565b610644565b60405161015e919061168f565b60405180910390f35b61016f610683565b60405161017c91906116b9565b60405180910390f35b61019f600480360381019061019a9190611739565b610690565b005b6101a9610913565b005b6101b36109f9565b005b6101bd610a0d565b6040516101ca919061168f565b60405180910390f35b6101db610a36565b6040516101e891906116b9565b60405180910390f35b6101f9610af5565b60405161020691906117fd565b60405180910390f35b61022960048036038101906102249190611621565b610b08565b60405161023691906118f4565b60405180910390f35b610247610c6f565b005b610251610d55565b60405161025e91906116b9565b60405180910390f35b61026f610d5b565b005b610279610ed6565b005b61029560048036038101906102909190611942565b610fbb565b6040516102a291906119cc565b60405180910390f35b6102b36110e3565b005b6102cf60048036038101906102ca9190611942565b6111c9565b005b6102eb60048036038101906102e69190611942565b61124c565b005b600460003373ffffffffffffffffffffffffffffffffffffffff1673ffffffffffffffffffffffffffffffffffffffff16815260200190815260200160002060000160009054906101000a900460ff1661037c576040517f08c379a000000000000000000000000000000000000000000000000000000000815260040161037390611a44565b60405180910390fd5b600360058111156103905761038f611786565b5b600260009054906101000a900460ff1660058111156103b2576103b1611786565b5b146103f2576040517f08c379a00000000000000000000000000000000000000000000000000000000081526004016103e990611ad6565b60405180910390fd5b60011515600460003373ffffffffffffffffffffffffffffffffffffffff1673ffffffffffffffffffffffffffffffffffffffff16815260200190815260200160002060000160019054906101000a900460ff16151503610488576040517f08c379a000000000000000000000000000000000000000000000000000000000815260040161047f90611b42565b60405180910390fd5b60038054905081106104cf576040517f08c379a00000000000000000000000000000000000000000000000000000000081526004016104c690611bae565b60405180910390fd5b80600460003373ffffffffffffffffffffffffffffffffffffffff1673ffffffffffffffffffffffffffffffffffffffff168152602001908152602001600020600101819055506001600460003373ffffffffffffffffffffffffffffffffffffffff1673ffffffffffffffffffffffffffffffffffffffff16815260200190815260200160002060000160016101000a81548160ff0219169083151502179055506003818154811061058557610584611bce565b5b906000526020600020906002020160010160008154809291906105a790611c2c565b91905055506003600154815481106105c2576105c1611bce565b5b906000526020600020906002020160010154600382815481106105e8576105e7611bce565b5b906000526020600020906002020160010154111561060857806001819055505b7f4d99b957a2bc29a30ebd96a7be8e68fe50a3c701db28a91436490b7d53870ca43382604051610639929190611c74565b60405180910390a150565b6005818154811061065457600080fd5b906000526020600020016000915054906101000a900473ffffffffffffffffffffffffffffffffffffffff1681565b6000600580549050905090565b600460003373ffffffffffffffffffffffffffffffffffffffff1673ffffffffffffffffffffffffffffffffffffffff16815260200190815260200160002060000160009054906101000a900460ff1661071f576040517f08c379a000000000000000000000000000000000000000000000000000000000815260040161071690611a44565b60405180910390fd5b6001600581111561073357610732611786565b5b600260009054906101000a900460ff16600581111561075557610754611786565b5b14610795576040517f08c379a000000000000000000000000000000000000000000000000000000000815260040161078c90611ce9565b60405180910390fd5b6040516020016107a490611d2f565b6040516020818303038152906040528051906020012082826040516020016107cd929190611d8b565b6040516020818303038152906040528051906020012003610823576040517f08c379a000000000000000000000000000000000000000000000000000000000815260040161081a90611e21565b60405180910390fd5b61082b6115a2565b82828080601f016020809104026020016040519081016040528093929190818152602001838380828437600081840152601f19601f820116905080830192505050505050508160000181905250600381908060018154018082558091505060019003906000526020600020906002020160009091909190915060008201518160000190816108b9919061207c565b506020820151816001015550507f92e393e9b54e2f801d3ea4beb0c5e71a21cc34a5d34b77d0fb8a3aa1650dc18f60016003805490506108f9919061214e565b60405161090691906116b9565b60405180910390a1505050565b61091b611458565b6004600581111561092f5761092e611786565b5b600260009054906101000a900460ff16600581111561095157610950611786565b5b14610991576040517f08c379a0000000000000000000000000000000000000000000000000000000008152600401610988906121f4565b60405180910390fd5b6005600260006101000a81548160ff021916908360058111156109b7576109b6611786565b5b02179055507f0a97a4ee45751e2abf3e4fc8946939630b11b371ea8ae39ccdc3056e98f5cc3f600460056040516109ef929190612214565b60405180910390a1565b610a01611458565b610a0b60006114d6565b565b60008060009054906101000a900473ffffffffffffffffffffffffffffffffffffffff16905090565b6000600460003373ffffffffffffffffffffffffffffffffffffffff1673ffffffffffffffffffffffffffffffffffffffff16815260200190815260200160002060000160009054906101000a900460ff16610ac7576040517f08c379a0000000000000000000000000000000000000000000000000000000008152600401610abe90611a44565b60405180910390fd5b600060038054905003610add5760009050610af2565b6001600380549050610aef919061214e565b90505b90565b600260009054906101000a900460ff1681565b610b106115a2565b600460003373ffffffffffffffffffffffffffffffffffffffff1673ffffffffffffffffffffffffffffffffffffffff16815260200190815260200160002060000160009054906101000a900460ff16610b9f576040517f08c379a0000000000000000000000000000000000000000000000000000000008152600401610b9690611a44565b60405180910390fd5b60038281548110610bb357610bb2611bce565b5b9060005260206000209060020201604051806040016040529081600082018054610bdc90611e9f565b80601f0160208091040260200160405190810160405280929190818152602001828054610c0890611e9f565b8015610c555780601f10610c2a57610100808354040283529160200191610c55565b820191906000526020600020905b815481529060010190602001808311610c3857829003601f168201915b505050505081526020016001820154815250509050919050565b610c77611458565b60036005811115610c8b57610c8a611786565b5b600260009054906101000a900460ff166005811115610cad57610cac611786565b5b14610ced576040517f08c379a0000000000000000000000000000000000000000000000000000000008152600401610ce490611ad6565b60405180910390fd5b6004600260006101000a81548160ff02191690836005811115610d1357610d12611786565b5b02179055507f0a97a4ee45751e2abf3e4fc8946939630b11b371ea8ae39ccdc3056e98f5cc3f60036004604051610d4b929190612214565b60405180910390a1565b60015481565b610d63611458565b60006005811115610d7757610d76611786565b5b600260009054906101000a900460ff166005811115610d9957610d98611786565b5b14610dd9576040517f08c379a0000000000000000000000000000000000000000000000000000000008152600401610dd0906122af565b60405180910390fd5b6001600260006101000a81548160ff02191690836005811115610dff57610dfe611786565b5b0217905550610e0c6115a2565b6040518060400160405280600781526020017f47454e4553495300000000000000000000000000000000000000000000000000815250816000018190525060038190806001815401808255809150506001900390600052602060002090600202016000909190919091506000820151816000019081610e8b919061207c565b506020820151816001015550507f0a97a4ee45751e2abf3e4fc8946939630b11b371ea8ae39ccdc3056e98f5cc3f60006001604051610ecb929190612214565b60405180910390a150565b610ede611458565b60016005811115610ef257610ef1611786565b5b600260009054906101000a900460ff166005811115610f1457610f13611786565b5b14610f54576040517f08c379a0000000000000000000000000000000000000000000000000000000008152600401610f4b90612341565b60405180910390fd5b60028060006101000a81548160ff02191690836005811115610f7957610f78611786565b5b02179055507f0a97a4ee45751e2abf3e4fc8946939630b11b371ea8ae39ccdc3056e98f5cc3f60016002604051610fb1929190612214565b60405180910390a1565b610fc36115bc565b600460003373ffffffffffffffffffffffffffffffffffffffff1673ffffffffffffffffffffffffffffffffffffffff16815260200190815260200160002060000160009054906101000a900460ff16611052576040517f08c379a000000000000000000000000000000000000000000000000000000000815260040161104990611a44565b60405180910390fd5b600460008373ffffffffffffffffffffffffffffffffffffffff1673ffffffffffffffffffffffffffffffffffffffff1681526020019081526020016000206040518060600160405290816000820160009054906101000a900460ff161515151581526020016000820160019054906101000a900460ff161515151581526020016001820154815250509050919050565b6110eb611458565b600260058111156110ff576110fe611786565b5b600260009054906101000a900460ff16600581111561112157611120611786565b5b14611161576040517f08c379a0000000000000000000000000000000000000000000000000000000008152600401611158906123d3565b60405180910390fd5b6003600260006101000a81548160ff0219169083600581111561118757611186611786565b5b02179055507f0a97a4ee45751e2abf3e4fc8946939630b11b371ea8ae39ccdc3056e98f5cc3f600260036040516111bf929190612214565b60405180910390a1565b6111d1611458565b600073ffffffffffffffffffffffffffffffffffffffff168173ffffffffffffffffffffffffffffffffffffffff1603611240576040517f08c379a000000000000000000000000000000000000000000000000000000000815260040161123790612465565b60405180910390fd5b611249816114d6565b50565b611254611458565b6000600581111561126857611267611786565b5b600260009054906101000a900460ff16600581111561128a57611289611786565b5b146112ca576040517f08c379a00000000000000000000000000000000000000000000000000000000081526004016112c1906124f7565b60405180910390fd5b60011515600460008373ffffffffffffffffffffffffffffffffffffffff1673ffffffffffffffffffffffffffffffffffffffff16815260200190815260200160002060000160009054906101000a900460ff16151503611360576040517f08c379a000000000000000000000000000000000000000000000000000000000815260040161135790612563565b60405180910390fd5b6001600460008373ffffffffffffffffffffffffffffffffffffffff1673ffffffffffffffffffffffffffffffffffffffff16815260200190815260200160002060000160006101000a81548160ff0219169083151502179055506005819080600181540180825580915050600190039060005260206000200160009091909190916101000a81548173ffffffffffffffffffffffffffffffffffffffff021916908373ffffffffffffffffffffffffffffffffffffffff1602179055507fb6be2187d059cc2a55fe29e0e503b566e1e0f8c8780096e185429350acffd3dd8160405161144d919061168f565b60405180910390a150565b61146061159a565b73ffffffffffffffffffffffffffffffffffffffff1661147e610a0d565b73ffffffffffffffffffffffffffffffffffffffff16146114d4576040517f08c379a00000000000000000000000000000000000000000000000000000000081526004016114cb906125cf565b60405180910390fd5b565b60008060009054906101000a900473ffffffffffffffffffffffffffffffffffffffff169050816000806101000a81548173ffffffffffffffffffffffffffffffffffffffff021916908373ffffffffffffffffffffffffffffffffffffffff1602179055508173ffffffffffffffffffffffffffffffffffffffff168173ffffffffffffffffffffffffffffffffffffffff167f8be0079c531659141344cd1fd0a4f28419497f9722a3daafe3b4186f6b6457e060405160405180910390a35050565b600033905090565b604051806040016040528060608152602001600081525090565b6040518060600160405280600015158152602001600015158152602001600081525090565b600080fd5b600080fd5b6000819050919050565b6115fe816115eb565b811461160957600080fd5b50565b60008135905061161b816115f5565b92915050565b600060208284031215611637576116366115e1565b5b60006116458482850161160c565b91505092915050565b600073ffffffffffffffffffffffffffffffffffffffff82169050919050565b60006116798261164e565b9050919050565b6116898161166e565b82525050565b60006020820190506116a46000830184611680565b92915050565b6116b3816115eb565b82525050565b60006020820190506116ce60008301846116aa565b92915050565b600080fd5b600080fd5b600080fd5b60008083601f8401126116f9576116f86116d4565b5b8235905067ffffffffffffffff811115611716576117156116d9565b5b602083019150836001820283011115611732576117316116de565b5b9250929050565b600080602083850312156117505761174f6115e1565b5b600083013567ffffffffffffffff81111561176e5761176d6115e6565b5b61177a858286016116e3565b92509250509250929050565b7f4e487b7100000000000000000000000000000000000000000000000000000000600052602160045260246000fd5b600681106117c6576117c5611786565b5b50565b60008190506117d7826117b5565b919050565b60006117e7826117c9565b9050919050565b6117f7816117dc565b82525050565b600060208201905061181260008301846117ee565b92915050565b600081519050919050565b600082825260208201905092915050565b60005b83811015611852578082015181840152602081019050611837565b60008484015250505050565b6000601f19601f8301169050919050565b600061187a82611818565b6118848185611823565b9350611894818560208601611834565b61189d8161185e565b840191505092915050565b6118b1816115eb565b82525050565b600060408301600083015184820360008601526118d4828261186f565b91505060208301516118e960208601826118a8565b508091505092915050565b6000602082019050818103600083015261190e81846118b7565b905092915050565b61191f8161166e565b811461192a57600080fd5b50565b60008135905061193c81611916565b92915050565b600060208284031215611958576119576115e1565b5b60006119668482850161192d565b91505092915050565b60008115159050919050565b6119848161196f565b82525050565b6060820160008201516119a0600085018261197b565b5060208201516119b3602085018261197b565b5060408201516119c660408501826118a8565b50505050565b60006060820190506119e1600083018461198a565b92915050565b600082825260208201905092915050565b7f596f75277265206e6f74206120766f7465720000000000000000000000000000600082015250565b6000611a2e6012836119e7565b9150611a39826119f8565b602082019050919050565b60006020820190508181036000830152611a5d81611a21565b9050919050565b7f566f74696e672073657373696f6e20686176656e74207374617274656420796560008201527f7400000000000000000000000000000000000000000000000000000000000000602082015250565b6000611ac06021836119e7565b9150611acb82611a64565b604082019050919050565b60006020820190508181036000830152611aef81611ab3565b9050919050565b7f596f75206861766520616c726561647920766f74656400000000000000000000600082015250565b6000611b2c6016836119e7565b9150611b3782611af6565b602082019050919050565b60006020820190508181036000830152611b5b81611b1f565b9050919050565b7f50726f706f73616c206e6f7420666f756e640000000000000000000000000000600082015250565b6000611b986012836119e7565b9150611ba382611b62565b602082019050919050565b60006020820190508181036000830152611bc781611b8b565b9050919050565b7f4e487b7100000000000000000000000000000000000000000000000000000000600052603260045260246000fd5b7f4e487b7100000000000000000000000000000000000000000000000000000000600052601160045260246000fd5b6000611c37826115eb565b91507fffffffffffffffffffffffffffffffffffffffffffffffffffffffffffffffff8203611c6957611c68611bfd565b5b600182019050919050565b6000604082019050611c896000830185611680565b611c9660208301846116aa565b9392505050565b7f50726f706f73616c7320617265206e6f7420616c6c6f77656420796574000000600082015250565b6000611cd3601d836119e7565b9150611cde82611c9d565b602082019050919050565b60006020820190508181036000830152611d0281611cc6565b9050919050565b50565b6000611d196000836119e7565b9150611d2482611d09565b600082019050919050565b60006020820190508181036000830152611d4881611d0c565b9050919050565b82818337600083830152505050565b6000611d6a83856119e7565b9350611d77838584611d4f565b611d808361185e565b840190509392505050565b60006020820190508181036000830152611da6818486611d5e565b90509392505050565b7f566f7573206e6520706f7576657a20706173206e65207269656e2070726f706f60008201527f7365720000000000000000000000000000000000000000000000000000000000602082015250565b6000611e0b6023836119e7565b9150611e1682611daf565b604082019050919050565b60006020820190508181036000830152611e3a81611dfe565b9050919050565b7f4e487b7100000000000000000000000000000000000000000000000000000000600052604160045260246000fd5b7f4e487b7100000000000000000000000000000000000000000000000000000000600052602260045260246000fd5b60006002820490506001821680611eb757607f821691505b602082108103611eca57611ec9611e70565b5b50919050565b60008190508160005260206000209050919050565b60006020601f8301049050919050565b600082821b905092915050565b600060088302611f327fffffffffffffffffffffffffffffffffffffffffffffffffffffffffffffffff82611ef5565b611f3c8683611ef5565b95508019841693508086168417925050509392505050565b6000819050919050565b6000611f79611f74611f6f846115eb565b611f54565b6115eb565b9050919050565b6000819050919050565b611f9383611f5e565b611fa7611f9f82611f80565b848454611f02565b825550505050565b600090565b611fbc611faf565b611fc7818484611f8a565b505050565b5b81811015611feb57611fe0600082611fb4565b600181019050611fcd565b5050565b601f8211156120305761200181611ed0565b61200a84611ee5565b81016020851015612019578190505b61202d61202585611ee5565b830182611fcc565b50505b505050565b600082821c905092915050565b600061205360001984600802612035565b1980831691505092915050565b600061206c8383612042565b9150826002028217905092915050565b61208582611818565b67ffffffffffffffff81111561209e5761209d611e41565b5b6120a88254611e9f565b6120b3828285611fef565b600060209050601f8311600181146120e657600084156120d4578287015190505b6120de8582612060565b865550612146565b601f1984166120f486611ed0565b60005b8281101561211c578489015182556001820191506020850194506020810190506120f7565b868310156121395784890151612135601f891682612042565b8355505b6001600288020188555050505b505050505050565b6000612159826115eb565b9150612164836115eb565b925082820390508181111561217c5761217b611bfd565b5b92915050565b7f43757272656e7420737461747573206973206e6f7420766f74696e672073657360008201527f73696f6e20656e64656400000000000000000000000000000000000000000000602082015250565b60006121de602a836119e7565b91506121e982612182565b604082019050919050565b6000602082019050818103600083015261220d816121d1565b9050919050565b600060408201905061222960008301856117ee565b61223660208301846117ee565b9392505050565b7f5265676973746572696e672070726f706f73616c732063616e7420626520737460008201527f6172746564206e6f770000000000000000000000000000000000000000000000602082015250565b60006122996029836119e7565b91506122a48261223d565b604082019050919050565b600060208201905081810360008301526122c88161228c565b9050919050565b7f5265676973746572696e672070726f706f73616c7320686176656e742073746160008201527f7274656420796574000000000000000000000000000000000000000000000000602082015250565b600061232b6028836119e7565b9150612336826122cf565b604082019050919050565b6000602082019050818103600083015261235a8161231e565b9050919050565b7f5265676973746572696e672070726f706f73616c73207068617365206973206e60008201527f6f742066696e6973686564000000000000000000000000000000000000000000602082015250565b60006123bd602b836119e7565b91506123c882612361565b604082019050919050565b600060208201905081810360008301526123ec816123b0565b9050919050565b7f4f776e61626c653a206e6577206f776e657220697320746865207a65726f206160008201527f6464726573730000000000000000000000000000000000000000000000000000602082015250565b600061244f6026836119e7565b915061245a826123f3565b604082019050919050565b6000602082019050818103600083015261247e81612442565b9050919050565b7f566f7465727320726567697374726174696f6e206973206e6f74206f70656e2060008201527f7965740000000000000000000000000000000000000000000000000000000000602082015250565b60006124e16023836119e7565b91506124ec82612485565b604082019050919050565b60006020820190508181036000830152612510816124d4565b9050919050565b7f416c726561647920726567697374657265640000000000000000000000000000600082015250565b600061254d6012836119e7565b915061255882612517565b602082019050919050565b6000602082019050818103600083015261257c81612540565b9050919050565b7f4f776e61626c653a2063616c6c6572206973206e6f7420746865206f776e6572600082015250565b60006125b96020836119e7565b91506125c482612583565b602082019050919050565b600060208201905081810360008301526125e8816125ac565b905091905056fea264697066735822122067f70ca2697114fffeac3a6e9e38a2735194edb7317b5f74fcd9c68cca8d0c2c64736f6c63430008110033",
  "linkReferences": {},
  "deployedLinkReferences": {}
}